:020000040800F2
:10000000E80B0020A9010008573900084733000811
:1000100055390008050800080945000800000000DF
:100020000000000000000000000000007B39000814
:100030000708000800000000793900087D39000831
:10004000C3010008C3010008C3010008C301000880
:10005000C3010008C3010008C3010008C301000870
:10006000C3010008C3010008C3010008C301000860
:10007000C3010008C3010008C3010008C301000850
:10008000C3010008C30100080D070008C3010008F0
:10009000C3010008C3010008C3010008C301000830
:1000A000C3010008C3010008C3010008C301000820
:1000B000653A0008713A00087D3A0008C30100085B
:1000C000C3010008C3010008C3010008C301000800
:1000D000C3010008FD440008C3010008C301000873
:1000E000C3010008C3010008C3010008C3010008E0
:1000F000C3010008C3010008C30100082907000864
:10010000C30100080000000000000000C301000857
:10011000614000086D400008C3010008C3010008E9
:10012000C3010008C3010008C3010008C30100089F
:10013000C3010008350700080000000000000000AF
:10014000C3010008C3010008C3010008000000004B
:10015000000000000000000000000000000000009F
:10016000C3010008C3010008C3010008C30100085F
:10017000C3010008C3010008C3010008C30100084F
:10018000C3010008C30100080000000000000000D7
:10019000C3010008DFF80CD000F0A6FA00480047C1
:1001A000B1460008E80B0020064880470648004793
:1001B000FEE7FEE7FEE7FEE7FEE7FEE7FEE7FEE717
:1001C000FEE7FEE7FD39000895010008202A04DB60
:1001D000203A21FA02F00021704721FA02F3D040C0
:1001E000C2F120029140084319467047D2B201E0A3
:1001F00000F8012B491EFBD270470022F6E710B52C
:1002000013460A4604461946FFF7F0FF204610BD84
:100210002DE9FE4F804681EA0300C00F0C46009096
:1002200021F0004123F00045B8EB0200A94105D2BE
:100230004046214690461C460B46024623F00040AD
:10024000104347D0270DC7F30A00C3F30A510290A9
:10025000401A019040286BDAC3F3130040F4801B6E
:100260000098924620B10023D2EB030A63EB0B0BFC
:1002700001985946C0F14002504600F080F9064608
:100280000D4650465946019A00F088F910EB0800D7
:100290006141002487EA115284EAE7731A4340D08F
:1002A000009A62B3019A012A4FEA075215DC001B3B
:1002B00061EB02014FF0004202EA0752CDE9004231
:1002C000001C41F5801132462B4600F0BFF903B007
:1002D000BDE8F08F40462146F9E7001B61EB0201C3
:1002E000001C41F5801300185B412018A2F500178F
:1002F00047EB030140EAD570B6196D4111E06D0876
:100300004FEA360645EAC0754FEA0752001B61EB1B
:100310000201001C41F5801149084FEA3000001924
:10032000514132462B4603B0BDE8F04F00F07FB993
:100330000098012240000023D0EB020263EBE0733F
:10034000009821464FEAE074B8EB000061EB04012D
:10035000E9E783F000435BE781F0004158E72DE9CE
:10036000FE4F81EA030404F0004421F000410094B0
:100370004FF0000B23F0004350EA01045ED052EA34
:1003800003045BD0C3F30A54C1F30A552C44A4F20E
:10039000F3340194A0FB0254C1F3130141F4801122
:1003A000C3F3130343F4801301FB024400FB034E29
:1003B000840A970A44EA815447EA8357A4FB0768F2
:1003C00002958D0A05FB07854FEA932C04FB0C541C
:1003D0002705029D4FEA065847EA1637B5EB080590
:1003E0006EEB070C870E920E47EA811742EA8312E2
:1003F000A7FB0201B6EB0B0164EB00042B0D43EAF3
:100400000C335E1844EB1C50DA465146E7FB020100
:10041000C5F313044FEA0B3343EA14534FEA043293
:10042000019C43EA0603A4F10C040294009CCDE96C
:1004300000B400F00BF903B0BDE8F08F00200146D6
:10044000F9E72DE9F04D81EA030404F0004B21F0B7
:10045000004514464FF0000A23F0004150EA05021F
:1004600020D054EA01021DD0C5F30A570246C5F355
:100470001303C1F31300C1F30A5640F4801543F48B
:100480008013A7EB0608101BD64608F2FD3873EB65
:10049000050002D308F1010801E092185B41B8F1B0
:1004A000000F03DA00200146BDE8F08D00204FF474
:1004B0008011064684460EE0171B73EB050705D333
:1004C000121B63EB050306434CEA010C49084FEA93
:1004D000300092185B4150EA0107EDD152EA030067
:1004E00012D082EA040083EA0501084305D0101BFC
:1004F000AB4106D20122002306E000224FF0004368
:1005000002E06FF0010253101AEB06004CEB0851A9
:1005100010EB0A0041EB0B01BDE8F04D00F087B88D
:1005200000F0004230F000400AD0C10D01F56071CA
:10053000C0F3160042EA0151C20840071143704758
:1005400000200146704701F0004330B421F0004123
:1005500050EA010206D00A0DA2F56072C1F3130140
:10056000002A02DC30BC00207047440F44EAC1047A
:10057000C100E01830BC00EBC25000F021B8202AC6
:1005800004DB203A00FA02F1002070479140C2F1EA
:10059000200320FA03F3194390407047202A06DB1A
:1005A000CB17203A41FA02F043EAE07306E041FA41
:1005B00002F3D040C2F1200291400843194670472F
:1005C0000029A8BF7047401C490008BF20F0010067
:1005D000704710B4B0FA80FC00FA0CF050EA010445
:1005E00004BF10BC704749B1CCF1200421FA04F4D7
:1005F00011FA0CF118BF012121430843A3EB0C01B0
:10060000CB1D4FEA00614FEA102042BF002010BC12
:10061000704700EBC35010440029A4BF10BC7047C2
:10062000401C490008BF20F0010010BC704710B505
:10063000141E73F1000408DA401C41F10001921805
:100640005B411A4301D120F0010010BD2DE9F04DAE
:1006500092469B4611B1B1FA81F202E0B0FA80F203
:1006600020329046FFF78BFF04460F4640EA0A000F
:1006700041EA0B0153465A46084313D0114653EA48
:10068000010019D0C8F140025046FFF79FFD054612
:100690000E46504659464246FFF771FF084305D0C3
:1006A000012004E020463946BDE8F08D00200543D6
:1006B00046EAE0762C4337430A986305E40AA0EB48
:1006C00008000022FD0A44EA47540A3002D50020FF
:1006D0000146E9E7010510196941DDE908450019FE
:1006E0006941BDE8F04DA2E7064C074D06E0E06821
:1006F00040F0010394E8070098471034AC42F6D369
:10070000FFF74CFDC8490008E849000810B5044847
:1007100000F07CFBBDE81040024800F077BB000011
:1007200080000020D4000020014800F06FBB0000D2
:1007300028010020014800F069BB00007C01002076
:1007400070B504460068816801F00301012926D1D3
:100750000168C90723D0816801F00D01012910D17A
:10076000816841F00201816021680320086001F086
:1007700035F905460FE000BF01F030F9401B0228B3
:1007800009D9606C40F010006064A06C40F001007A
:10079000A064012070BD20688068C007ECD10020F3
:1007A00070BD000070B504460068816801F0030167
:1007B000012902D10168C90720D18168104A11427C
:1007C0000DD1816841F00101816001F007F9054612
:1007D0000FE000BF01F002F9401B022809D9606C4C
:1007E00040F010006064A06C40F00100A0640120A3
:1007F00070BD20680068C043C007EBD1002070BD09
:100800003F000080FEE770477047704770477047B1
:10081000F0B5002302684FF0A04C3D4C95B01F4648
:10082000624501D100940DE0A24202D1CDF800C092
:1008300008E0384D384EAA4201D1009602E0B2429B
:1008400014D1009590F84050012D12D0012580F868
:10085000405095686D0752D4009DAD686D074ED429
:10086000624501D0A24206D12C4A05E0012015B014
:10087000F0BD0220FBE72A4A0D6840F61F741DB345
:100880009568466B25F4604545EA46354E68354324
:1008900095600568AE6806F00306012E02D12D684A
:1008A000ED0731D1009DAD6805F00305012D03D1A1
:1008B000009D2D68ED0727D10D6889680D4391686B
:1008C000A1430D4395601FE0916821F46041916060
:1008D00001688D6805F00305012D02D10968C9077B
:1008E00012D10099896801F00301012903D100990F
:1008F0000968C90708D19168A143916004E0416C7F
:1009000041F020014164012380F840701846AEE7B1
:10091000000100500004005000050050000300508A
:1009200000070050F0B595B00024009490F84020E6
:100930002546012A19D0012780F8407003689A687B
:1009400052077CD44A681F26052A11D2D3F830C03A
:1009500002EB4202520096402CEA060C0E689640CA
:100960004CEA060CC3F830C035E0022015B0F0BDEB
:100970000A2A0FD2D3F834C0521F02EB42025200AF
:1009800096402CEA060C0E6896404CEA060CC3F81A
:1009900034C020E00F2A0FD2D3F838C00A3A02EB55
:1009A0004202520096402CEA060C0E6896404CEA31
:1009B000060CC3F838C00EE0D3F83CC00F3A02EB87
:1009C0004202520096402CEA060C0E6896404CEA11
:1009D000060CC3F83CC00268936813F00C0F4FF08C
:1009E000070374D1D1F800E0BEF10A0F10D3966965
:1009F000AEF10A0E0EEB4E0C03FA0CFE26EA0E06C2
:100A0000D1F808E00EFA0CFE46EA0E0696610FE0F9
:100A1000D2F814C00EEB4E0603FA06FE2CEA0E0CBA
:100A2000D1F808E00EFA06FE4CEA0E0CC2F814C02B
:100A300002684E69D2F80CC0CCF3C10C00E0FDE0B6
:100A40004FEA4C0C06FA0CF6D1F810E0DFF848C279
:100A5000BEF1010F42D0BEF1020F4DD0BEF1030F27
:100A600058D0BEF1040F63D0166E91F800C006F0A6
:100A7000F846B6EB8C6F03D1166E26F0004616666C
:100A80000268566E91F800C006F0F846B6EB8C6F1F
:100A900003D1566E26F0004656660268966E91F8AF
:100AA00000C006F0F846B6EB8C6F03D1966E26F0C8
:100AB000004696660268D66E91F800C006F0F846C9
:100AC000B6EB8C6F03D1D66E26F00046D666026870
:100AD000966806F00306012E3AD136E0D2F860E0BF
:100AE0000EEA0C0E91F800C046EA8C664EEA060E3D
:100AF0004EF000461666EAE7D2F864E00EEA0C0E05
:100B000091F800C046EA8C664EEA060E4EF00046AA
:100B10005666DCE7D2F868E00EEA0C0E91F800C0E9
:100B200046EA8C664EEA060E4EF000469666CEE722
:100B3000D2F86CE00EEA0C0E91F800C046EA8C6622
:100B40004EEA060E4EF00046C0E71668F6077AD168
:100B5000CE68012E06D052F8B03F0E78B740BB43A6
:100B6000136021E052F8B06F91F800C007FA0CF75B
:100B70003E4316600A680A2A0BD30668B769093A29
:100B800002EB420293409F438B6893401F43B7613F
:100B90000AE007687E69521C02EB420293409E43C2
:100BA0008B6893401E437E6103684FF0A0473B4E25
:100BB000BB4201D0B34201D1394A00E0394A096849
:100BC000102904D0112907D012290AD03BE0D2F80D
:100BD00008C04FEA0C2C08E0D2F808C04FEACC1C41
:100BE00003E0D2F808C04FEA4C2CBCF1000F2ADB1E
:100BF000BB420DD0B34201D100970CE02A4EDFF882
:100C0000ACC0B34202D1CDF800C004E0634501D1CD
:100C1000009600E000959E6806F00306012E02D1C2
:100C20001E68F6070AD1009E8EB1B66806F003066C
:100C3000012E0CD1009E3668F60708D0416C41F0B9
:100C400020014164012480F8405020468EE610299E
:100C500008D011291AD01229F5D1916841F48001E8
:100C60009160F0E7BB42EED1916841F400019160E0
:100C70000F49104A0968B1FBF2F101EB810149000B
:100C800000E0491E00910029FBD1DCE7BB42DAD12C
:100C9000916841F08071E3E700F0FF8300010050AC
:100CA00000030050000700500004005000050050F1
:100CB0007800002040420F0070B505462DED088BEE
:100CC00000684349434C9FED448B9FED459B9FED4E
:100CD00046AB9FED47BB884223D16421464800F0D4
:100CE0000DFC454800F08FF800EE100AB8EE400AFF
:100CF00084ED0C0A10EE100AFFF712FC53EC182BCF
:100D0000FFF72DFB53EC192BFFF729FB53EC1A2BA4
:100D1000FFF71FFB53EC1B2BFFF793FBFFF713FCB5
:100D2000E06336492868884225D133486421A838D1
:100D300000F0E4FB3048A83800F065F800EE100A37
:100D4000B8EE400A84ED0D0A10EE100AFFF7E8FB3A
:100D500053EC182BFFF703FB53EC192BFFF7FFFAAB
:100D600053EC1A2BFFF7F5FA53EC1B2BFFF769FB3B
:100D7000FFF7E9FB206422492868884225D11E48F4
:100D80006421543800F0BAFB1B48543800F03BF89B
:100D900000EE100AB8EE400A84ED0E0A10EE100ABA
:100DA000FFF7BEFB53EC182BFFF7D9FA53EC192BC6
:100DB000FFF7D5FA53EC1A2BFFF7CBFA53EC1B2BAA
:100DC000FFF73FFBFFF7BFFB6064BDEC088B70BD16
:100DD00000050050000000206666666666660A40F0
:100DE000000000000000503F666666666666FA3FD7
:100DF0001F85EB51B81ED53F7C010020000100503B
:100E00000004005070470068006C70472DE9F04105
:100E1000044600680168C34FC34DC44E49074FF0F4
:100E2000A04802D54168490705D40168090761D582
:100E3000416809075ED5616CC90603D4616C41F451
:100E4000007161644146884201D0B04202D1D1F8BC
:100E5000082300E03A6812F01F0F1BD0884201D02F
:100E6000B04202D1D1F8082300E03A6802F01F0234
:100E7000052A0FD0884201D0B04202D1D1F8082310
:100E800000E03A6802F01F02092A03D0884201D02C
:100E9000A84201D1C16803E0B04200D02946C96828
:100EA000C26812F4406F1FD189041DD4016809077C
:100EB0001AD5816849070FD4416821F00C014160BF
:100EC000606C20F480706064606CC0040CD4606C52
:100ED00040F00100606407E0606C40F01000606466
:100EE000A06C40F00100A0642046FFF7E5FE2168F9
:100EF0000C20086020680168890602D541688906CF
:100F000005D4016849066ED5416849066BD5616C08
:100F100041F4005161644246904201D0B04202D196
:100F2000D2F8081300E0396811F01F0F1CD090426E
:100F300001D0B04202D1D2F8081300E0396801F0C4
:100F40001F01052910D04146884201D0B04202D18C
:100F5000D1F8083300E03B6803F01F03092B03D0EE
:100F6000884201D0A84201D1C16803E0B04200D05C
:100F70002946C968C36C13F0C00F07D08B0154D445
:100F8000C36813F4406F50D189044ED401684906F8
:100F90004BD51146884201D0B04202D1D1F8082386
:100FA00000E03A6812F01F0F1BD0884201D0B04217
:100FB00002D1D1F8082300E03A6802F01F02062AA5
:100FC0000FD0884201D0B04202D1D1F8082300E00E
:100FD0003A6802F01F02072A03D0884201D0A842D3
:100FE00002D1C16804E026E0B04200D02946C968B9
:100FF00089021AD4816809070FD4416821F0600181
:101000004160606C20F480506064606CC0050CD45A
:10101000606C40F00100606407E0606C40F010001C
:101020006064A06C40F00100A0642046FFF7ECFB78
:101030002168602008602068016809060CD54068B6
:10104000000609D5606C40F480306064204600F0F2
:10105000ABF921688020086020680168C9050DD5BA
:101060004068C0050AD5606C40F4003060642046DA
:10107000FFF7CCFB21684FF480700860206801689E
:1010800089050DD5406880050AD5606C40F4802044
:1010900060642046FFF7BBFB21684FF400700860D6
:1010A00020680168C90622D54168C9061FD5A16B11
:1010B00001290ED0404501D0B04201D11C4901E0C8
:1010C000184908398A68D20628D0886800F4404058
:1010D00050B1606C40F480606064A06C40F002002D
:1010E000A0642046FFF78EFE21681020086020686B
:1010F0000168490510D5416849050DD5616C41F479
:1011000080416164A16C41F00801A1644FF48061E9
:1011100001602046FFF779FBBDE8F081C068C00799
:10112000D6E70000080700500004005000010050FE
:1011300000030050F0B54FF0000695B004003746AC
:101140003546009605D0606CC00648D4606C18B176
:1011500033E0012015B0F0BDA5642565E56484F891
:101160004050204600F022F920688068C00024D456
:101170002046FFF7E5FA0646606CC0061DD4E6B9C6
:10118000606C20F4885040F0020060642068816840
:1011900021F0405181602068816841F08051816078
:1011A000784879490068B0FBF1F000EB800040001E
:1011B00000E0401E00900028FBD120688168C90033
:1011C00002D5806880000AD5606C20F0020040F0F3
:1011D00010006064A06C40F00100A0640126606C07
:1011E000C00671D4002E6FD12068816849076BD486
:1011F000616C21F4807141F0020161644FF0A04EF6
:10120000624B704501D0984201D1614A00E0614AC9
:10121000DFF884C16149704501D100930EE0984226
:1012200002D1CDF800E009E0884202D1CDF800C03B
:1012300004E0604501D1009100E00095836803F06F
:101240000303012B02D10068C00710D1009840B100
:10125000806800F00300012803D100980068C007EF
:1012600005D19068636820F4403018439060D4E959
:1012700002201043A26B012A02D04FF4805300E0F9
:101280000023E26943EA42331843636A3843012B7F
:101290000AD1D2B1626C22F0020242F020026264F2
:1012A000A26C42F00102A264E26A012A37D02368EC
:1012B0008B4201D063452DD14FF430714FF4E0776C
:1012C0008A420AD13A4627E052E0228D344B03EBA2
:1012D0004242024342F48030E6E74FF480739A4280
:1012E00001D10A4618E0BA4201D11A4614E0B2F51B
:1012F0008A5F06D0B2F5845F06D0B2F5865F06D06D
:101300000AE04FF4707207E04FF4A07204E04FF46B
:10131000C07201E022F480520243206B1043216826
:101320008A6812F00C0F0AD1CA6844F202039A4389
:10133000CA60A169626B890341EA420108432268DD
:10134000D168184B19400143D160206901282068F9
:10135000016B21F00F0102D1226A521E1143016379
:10136000A564606C20F0020040F00100606406E0BB
:10137000606C20F0020040F01000606401263046EE
:10138000E8E600007800002040420F000001005015
:1013900000030050000700500005005000040050FA
:1013A0000000FEFF07C0F0FF70470000F0B587B0F7
:1013B000044614216846FEF720FF4A4A25680026A5
:1013C0001368032448495B1C4FF09040B5F1A04FCF
:1013D00006D0464FBD4239D11360012B15D01CE019
:1013E0001360012B07D14A6942F080524A614A6971
:1013F00002F0805205924A6942F400324A6149691A
:1014000001F400310591012110E04A6942F0805257
:101410004A614A6902F0805205924A6942F40032F8
:101420004A61496901F40031059110218DE85200AB
:10143000694600F0E7F900221146122000F032FB65
:101440005FF0120000F022FB07B0F0BD284B2948E6
:101450009D4221D153685B1C5360012B07D14A691F
:1014600042F000524A614A6902F0005205924A690C
:1014700042F480224A61496901F4802105910221E8
:101480008DE85200694600F0BDF9002211462F2078
:1014900000F008FB2F20D5E7174B9D42D4D15368AD
:1014A0005B1C5360012B07D14A6942F000524A612C
:1014B0004A6902F0005205924A6942F480224A6168
:1014C000496901F4802105914FF480418DE8520073
:1014D000694600F097F9002211463D2000F0E2FA3B
:1014E0003D20AFE7640000200010024000010050E2
:1014F0000004005000040048000500502DE9F047AA
:101500000D46044641693F4A00684FF000084FF01D
:10151000A043082905D0984201D0904203D13A490E
:1015200002E0082614E039498E68F6060CD0896876
:1015300001F4404159B1606C40F02000606484F8CF
:1015400040800120BDE8F087C168C907F2E70C269A
:10155000984201D0904202D1D3F8081302E02B49FF
:101560000831096811F01F0F04D0984202D02849B1
:10157000884201D1C76803E0904200D11946CF6884
:1015800000F02CFA814610E0681C0ED02DB100F05E
:1015900025FAA0EB0900A84207D9606C40F00400CE
:1015A000606484F840800320CCE720680068304203
:1015B000EAD0606C40F4007060642068C16811F487
:1015C000406F1AD1B90418D40168090715D581688C
:1015D0004907616C0AD421F480716164616CC904AB
:1015E0000BD4616C41F00101616406E041F020011F
:1015F0006164A16C41F00101A164790400D406602A
:1016000000209FE700010050000300500007005039
:10161000000400502DE9F04104460068806840074E
:1016200070D494F8400001280CD0012084F84000C8
:101630002046FFF7B7F803004FF0000605D084F806
:1016400040609EE00220BDE8F081606C40F60161E0
:10165000884340F48070606420684FF0A0414A4A9B
:101660004A4D884201D0904202D1D1F8087300E07F
:101670002F6817F01F0F464F03D0884201D0B842A1
:101680000BD1D4F844C02CF4801CC4F844C0D0F86A
:101690000CC05FEA8C1C14D41BE0D4F844C04CF49A
:1016A000801CC4F844C0904202D1D1F80CC005E0BF
:1016B000DFF8DCC00CF10C0CDCF800C01CF0007F83
:1016C00007D0D4F844C02CF4005C4CF4805CC4F81F
:1016D00044C0D4F844C05FEACC4C06D5D4F848C026
:1016E0002CF0060CC4F848C000E0A66484F8406002
:1016F0001C260660606908282068466803D046F00A
:101700000C0607E03CE026F00406466020684668C8
:1017100046F008064660A06B012804D120684668A0
:1017200026F0100646602068884201D0904202D11F
:10173000D1F8084300E02C6814F01F0F1BD088423A
:1017400001D0904202D1D1F8084300E02C6804F0A7
:101750001F04052C0FD0884201D0904202D1D1F84D
:10176000082300E02A6802F01F02092A03D08842F9
:1017700001D0B84205D1816841F00401816000E0E8
:10178000022318465FE700000001005008070050E0
:101790000004005010B590F821100024022903D055
:1017A00004218163012418E001680A6822F00E0216
:1017B0000A6001680A6822F001020A6090F840207D
:1017C000C36B012101FA02F25A6080F82110002156
:1017D00080F82010416B01B18847204610BD000001
:1017E00070B5044600F0FAF80546601C02D00448C3
:1017F0000078044400F0F2F8401BA042FAD370BD18
:101800006C0000202DE9F84FDFF8A0B1002301277C
:101810004FF0030A4FF00F090BF1040EBEE000BFBA
:1018200007FA03F63440220072D04C68022C01D033
:10183000122C12D1DC0800EB840CDCF820405D0790
:10184000ED0E09FA05F824EA0804D1F8108008FA28
:1018500005F848EA0408CCF82080D0F800805D0044
:1018600091F804C00AFA05F40CF0030C28EA040805
:101870000CFA05FC4CEA080CC0F800C0D1F804C012
:10188000BCF1010F08D0BCF1020F05D0BCF1110F63
:1018900002D0BCF1120F16D1D0F808C0D1F80C80DC
:1018A0002CEA040C08FA05F848EA0C08C0F808808D
:1018B000D0F804C02CEA060C0E79C6F300169E4040
:1018C00046EA0C064660C668A6438C68AC403443C2
:1018D000C4604C68E40060D5354CA56945F001054D
:1018E000A561A46923F0030504F001040094314CC0
:1018F0002E19B4689D074FEA157C09FA0CF5AC4324
:10190000B0F1904F05D02C4DA84204D101251CE028
:1019100043E0002519E0294DA84201D1022514E039
:10192000274DA84201D103250FE0264DA84201D141
:1019300004250AE0244DA84201D1052505E0234DE8
:10194000A84201D1062500E0072505FA0CF525433C
:10195000B560DBF800405D464E689443F60300D561
:1019600014432C60DEF8004075464E689443B6037D
:1019700000D514432C600D4D08352C684E689443F7
:10198000F60200D514432C60084D0C352C684E68C7
:101990009443B60200D514432C605B1C0A681446BD
:1019A000DA407FF43DAFBDE8F88F0000000401404D
:1019B00000100240000001400004004800080048F8
:1019C000000C0048001000480014004800180048AF
:1019D0000AB18161704781627047000001488068E8
:1019E000704700006C0000200248816802781144B2
:1019F000816070476C000020074810B5016841F015
:101A000010010160032000F06DF8002000F006F8DE
:101A100000F024F8002010BD0020024070B50D4DEC
:101A200004464FF47A712878B1FBF0F00A4909684E
:101A3000B1FBF0F000F07CFD48B9102C07D2002279
:101A40002146501E00F02EF800206C6070BD012071
:101A500070BD00006C000020780000200A4882B0B1
:101A6000816941F001018161816901F00101009109
:101A7000C16941F08051C161C06900F0805000909F
:101A8000072002B000F02EB80010024000F01F0244
:101A9000012191404009800000F1E020C0F80011D0
:101AA00070470000F0B40E4B1B680C46C3F30223D2
:101AB000C3F10705042D00D90425191D072901D2FA
:101AC000002300E0DB1E012606FA05F1491E214035
:101AD00099409E40761E16403143F0BC01F03CBF59
:101AE0000CED00E0064900F0070208684FF6FF031E
:101AF000184040EA0220034A104308607047000083
:101B00000CED00E00000FA052DE9F84F04460068EE
:101B10009F4DC0036FD5E8690026C00008D4E8696E
:101B200040F08050E861E869012600F080500090A4
:101B300098480168C90512D40168804641F4807153
:101B40000160FFF74BFF074605E000BFFFF746FFC8
:101B5000C01B642835D8D8F80000C005F6D5286A1F
:101B600010F4407053D0A18801F4407181424ED0EE
:101B7000286A4FF4803191FAA1F2B2FA82F297000A
:101B8000854A4FF00108174420F44070C7F80084DC
:101B900091FAA1F1B1FA81F102EB81010023C1F8C0
:101BA00000342862C00732D0FFF718FF074641F221
:101BB000883A4FF0020907E0FFF710FFC11B5145BB
:101BC00002D90320BDE8F88F99FAA9F1B1FA81F1A1
:101BD00041F040024846B8EB521F01D12A680CE0A0
:101BE00090FAA0F2B2FA82F242F04002B0EB521F39
:101BF00002D12A6A01E015E06A6A99FAA9F0B0FAFE
:101C000080F000F01F0008FA00F10A42D4D0286AE0
:101C1000616820F44070084328621EB1E86920F032
:101C20008050E8612078C00705D0286BA16820F0BB
:101C30000300084328632078800705D5286BE168F6
:101C400020F44030084328632078400705D5286BEE
:101C5000216920F44020084328632078800605D5B8
:101C6000286BE16920F01000084328632068800396
:101C700005D56868616D20F48000084368602078AD
:101C8000400605D5286B216A20F020000843286310
:101C90002068400305D5286B616A20F040000843A6
:101CA00028632078000705D5286B616920F440106F
:101CB000084328632078C00605D5286BA16920F465
:101CC0004000084328632088800505D56868216B9B
:101CD00020F40000084368602078000605D5E86A13
:101CE000A16A20F4F8700843E8622088C00505D591
:101CF000E86AE16A20F478500843E8622088C0046A
:101D000005D5286B616B20F4807008432863208818
:101D1000800405D5286B216C20F4007008432863EB
:101D20002068C00205D5286BA16B20F080700843A5
:101D300028632068800205D5286BE16B20F00070D5
:101D4000084328632068400205D5286B616C20F4A5
:101D50008060084328632068000205D5286BA16CC9
:101D600020F40060084328632068C00105D5286B73
:101D7000E16C20F40050084328632068800105D5F9
:101D8000286B216D20F4004008432863002019E7E8
:101D90000010024000700040000042422DE9F04770
:101DA0000F46050069D04A4E306800F00700B8427F
:101DB00009D2306820F0070038433060306800F006
:101DC0000700B84259D12878424C800705D5606891
:101DD000A96820F0F000084360602878C0073DD073
:101DE0006968012001290DD0022923D05FF0020388
:101DF00093FAA3F2B2FA82F242F02002520904D01E
:101E0000226803E04FF40033F2E7626A93FAA3F327
:101E1000B3FA83F303F01F03984002422DD06068A9
:101E200020F0030008436060FFF7D8FD804641F2D0
:101E300088390CE04FF00073DAE700BFFFF7CEFD02
:101E4000A0EB0801494502D90320BDE8F08760688E
:101E5000696800F00C00B0EB810FEFD1306800F042
:101E60000700B8420BD9306820F0070038433060D3
:101E7000306800F00700B84201D00120E5E728787B
:101E8000400705D56068E96820F4E06008436060B9
:101E90002878000706D56068296920F4605040EA78
:101EA000C100606000F04CF86168F02292FAA2F282
:101EB00001F0F001B2FA82F2D140074A515CC84009
:101EC000064908600020FFF7A9FD0020BDE70000DB
:101ED0000020024000100240B049000878000020B5
:101EE00008480949006849684FF4E06292FAA2F292
:101EF00001F4E061B2FA82F2D140044A515CC84078
:101F0000704700007800002000100240C04900081F
:101F100008480949006849684FF4605292FAA2F2F1
:101F200001F46051B2FA82F2D140044A515CC840D7
:101F3000704700007800002000100240C0490008EF
:101F4000124B10B55968124801F00C02042A1CD03B
:101F5000082A1AD14FF4701494FAA4F401F4701200
:101F6000B4FA84F4E2400B4CDB6AA25C0F2494FACE
:101F7000A4F403F00F03B4FA84F4E340054CC9035E
:101F80001034E35CB0FBF3F0504310BD001002408E
:101F900000127A00904900082DE9F84F04007DD026
:101FA0002078FA4DC0074FF0010637D068687704F3
:101FB000C0F38100012819D06868C0F381000228AD
:101FC00004D16868C0F3C13002280FD06068B0F552
:101FD000803F24D010B1B0F5A02F2AD0286820F47B
:101FE00080302860286820F480201BE097FAA7F052
:101FF000B0FA80F040F02000400901D0286800E0ED
:10200000686A97FAA7F1B1FA81F101F01F0106FAA7
:1020100001F108424ED060680028C0D04AE028682C
:1020200040F480302860606820B3FFF7D7FC80461A
:102030000AE0286840F480202860F0E7FFF7CEFC33
:10204000A0EB0800642873D897FAA7F0B0FA80F0E4
:1020500040F02000400901D0286800E0686A97FA43
:10206000A7F1B1FA81F101F01F0106FA01F108426E
:10207000E4D01FE0FFF7B2FC804605E0FFF7AEFCBE
:10208000A0EB08006428DED897FAA7F0B0FA80F039
:1020900040F02000400902D0286801E0B9E0686AF9
:1020A00097FAA7F1B1FA81F101F01F0106FA01F1E7
:1020B0000842E3D12078DFF8D88280074FF0000A89
:1020C0004FF002075DD568684FF0F80B10F00C0F69
:1020D00015D06868C0F38100022804D16868C0F395
:1020E000C13001280BD0E068A0B396FAA6F0B0FA90
:1020F00080F048F82060FFF771FC814620E097FAF5
:10210000A7F0B0FA80F040F02000400901D0286824
:1021100000E0686A97FAA7F1B1FA81F101F01F01B6
:1021200006FA01F1084221D0E068012871D11DE0D2
:1021300056E100BFFFF752FCA0EB09000228A2D82D
:1021400097FAA7F0B0FA80F040F02000400902D0E2
:10215000286801E016E0686A97FAA7F1B1FA81F100
:1021600001F01F0106FA01F10842E3D028689BFA4A
:10217000ABF22169B2FA82F220F0F80091400843F4
:10218000286024E096FAA6F1B1FA81F148F821A07E
:10219000FFF724FC814605E0FFF720FCA0EB0900D7
:1021A0000228CCD897FAA7F0B0FA80F040F02000CF
:1021B000400901D0286800E0686A97FAA7F1B1FAEF
:1021C00081F101F01F0106FA01F10842E4D1207803
:1021D00000076AD56069A0B396FAA6F0B0FA80F05D
:1021E00008EB8000C0F88064FFF7F8FB814605E04B
:1021F000FFF7F4FBA0EB09000228A0D897FAA7F09C
:10220000B0FA80F040F06000B6EB501F02D12868B1
:102210000CE073E197FAA7F0B0FA80F040F06000AC
:10222000B7EB501F01D1286A00E0686A97FAA7F15E
:10223000B1FA81F101F01F0106FA01F21042D7D084
:1022400033E0FFE796FAA6F0B0FA80F008EB8000E2
:10225000C0F880A4FFF7C2FB814605E0FFF7BEFB94
:10226000A0EB090002289CD897FAA7F0B0FA80F0FA
:1022700040F06000B6EB501F01D128680BE097FAE0
:10228000A7F0B0FA80F040F06000B7EB501F01D12A
:10229000286A00E0686A97FAA7F1B1FA81F101F0C3
:1022A0001F0106FA01F21042D8D12078400774D5F8
:1022B000E8694FF00009C00009D4E86940F0805097
:1022C000E861E8694FF0010900F080500090314862
:1022D0000168C90512D4016841F480710160FFF7FB
:1022E0007DFB834606E000BFFFF778FBA0EB0B0009
:1022F000642875D827480068C005F5D5A06801286E
:102300000AD008B1052811D0286A20F001002862FF
:10231000286A20F0040002E0286A40F001002862E8
:10232000A068C8B3FFF75AFB83460DE0286A40F067
:1023300004002862F0E700BFFFF750FBA0EB0B01A1
:1023400041F2883081424BD897FAA7F0B0FA80F07A
:1023500040F04000B6EB501F01D128680BE097FA1F
:10236000A7F0B0FA80F040F04000B7EB501F01D169
:10237000286A00E0686A97FAA7F1B1FA81F101F0E2
:102380001F0106FA01F21042D6D035E000100240DB
:10239000000042420070004000E034E0FFF71EFB06
:1023A000834607E0FFF71AFBA0EB0B0141F28830F0
:1023B000814215D897FAA7F0B0FA80F040F04000BB
:1023C000B6EB501F01D128680CE097FAA7F0B0FADD
:1023D00080F040F04000B7EB501F02D1286A01E0C6
:1023E00089E0686A97FAA7F1B1FA81F101F01F015B
:1023F00006FA01F21042D5D1B9F1000F03D0E86915
:1024000020F08050E861A06980B36968C1F3810160
:10241000022973D04FF080714F000228524609D034
:1024200091FAA1F0B0FA80F048F82020FFF7D6FA30
:10243000044664E091FAA1F0B0FA80F08A46C14601
:1024400048F82020FFF7CAFA804605E0FFF7C6FAF1
:10245000A0EB080002284ED897FAA7F0B0FA80F057
:1024600040F02000400902D0286801E05CE0686A82
:1024700097FAA7F1B1FA81F101F01F0106FA01F113
:102480000842E3D1E86A616A20F00F000843E8627D
:10249000D4E907100843696821F47611084368609D
:1024A0009AFAAAF0B0FA80F049F82060FFF796FA9D
:1024B000044604E0FFF792FA001B02281BD897FAA3
:1024C000A7F0B0FA80F040F02000400901D0286861
:1024D00000E0686A97FAA7F1B1FA81F101F01F01F3
:1024E00006FA01F10842E5D01EE000BFFFF776FAD8
:1024F000001B022803D90320BDE8F88F16E097FAE5
:10250000A7F0B0FA80F040F02000400901D0286820
:1025100000E0686A97FAA7F1B1FA81F101F01F01B2
:1025200006FA01F10842E1D10020E5E70120E3E7E6
:1025300010B5401EB0F1807F01D3012010BD4FF0D7
:10254000E02460610F21601701F006FA0020A0610D
:1025500007202061002010BD7047704770470000C1
:1025600030B590F83C20012A40D0012280F83C2070
:10257000CA688B6822F440721A434B6822F4806266
:102580001A430B6822F400621A430B6922F480524A
:102590001A434B6922F400521A438B6A22F4804298
:1025A0001A4322F400421A430B8B22F4702242EAAF
:1025B00003420F4D03680024AB4205D00D4DAB42E2
:1025C00002D00D4DAB420CD18D8C22F4700242EA48
:1025D0000552CD6922F080722A43096A22F0007206
:1025E0000A435A6480F83C40002030BD022030BDD0
:1025F000002C0140003401400050014030B590F8FB
:102600003C20012A22D0012280F83C200268536835
:1026100094680F4DAA4205D00E4DAA4202D00E4D2D
:10262000AA4203D123F470054B682B4323F07005B5
:102630000B6889682B4324F08004214353600268AF
:102640009160002180F83C10084630BD022030BD6A
:10265000002C0140003401400050014010B504003E
:1026600003D094F83D0010B107E0012010BD002018
:1026700084F83C00204600F00DF8022084F83D006C
:10268000211D206801F000FA012084F83D0000209F
:1026900010BD000030B587B0044614216846FDF730
:1026A000ACFD474823684749834207D1886940F415
:1026B00000608861886900F400607EE000220224E6
:1026C0004FF09040B3F1804F26D03F4DAB4245D103
:1026D000C86940F00200C861C86900F002000590B6
:1026E000486940F4802048614869694600F48020C8
:1026F000059030200090CDE90142CDE90324334814
:10270000FFF780F8002211461D20FFF7CBF91D20AE
:10271000FFF7BCF907B030BDCB6943F00103CB61D3
:10272000CB6903F0010305934B6943F400334B611C
:10273000496901F40031059148F202010091CDE9A7
:1027400001420121CDE903216946FFF75BF8002230
:1027500011461C20FFF7A6F91C20D9E71C4DAB42FF
:1027600021D1CB6943F00403CB61CB6903F00403AF
:1027700005934B6943F400334B61496901F400311F
:1027800005914FF4C0510091CDE901420A21CDE9F4
:1027900003216946FFF736F8002211461E20FFF795
:1027A00081F91E20B4E70B488342B3D1886940F415
:1027B00000508861886900F400500590AAE7000085
:1027C000002C0140001002400004004000040048BA
:1027D0000008004000340140022180F83D100168EB
:1027E0000A6842F001020A60012180F83D100020D1
:1027F0007047000070B5044690F83C00012817D0DF
:10280000012584F83C50022084F83D00226890683D
:10281000364E304020F47F4090600868502839D010
:102820000DDC20285BD005DC98B3102843D153E0A1
:10283000022070BD302855D040283CD141E06028AE
:1028400030D070280CD0B0F5805F03D0B0F5005FB9
:1028500031D112E020688168244A7032114016E0BC
:10286000CB68D1E90121206801F07BF921688868F3
:10287000304040F0770088601DE0CB68D1E901214D
:10288000206801F06EF92068816841F48041816020
:1028900011E01EE0CA684968206801F065FB50211C
:1028A000206806E0CA684968206801F0ABFB602137
:1028B000206801F060F984F83D50002084F83C0065
:1028C00070BDCA684968206801F04EFB402120684D
:1028D000EFE700212068ECE710212068E9E72021DC
:1028E0002068E6E730212068E3E7000088FFFEFF6C
:1028F00070B505462DED028B007F354C012809D1BE
:102900000021344800F00DFB00EE100AB8EE400A3A
:1029100084ED060A287F9FED308ADFED308A022899
:102920000FD104212B4800F0FCFA00EE100AB8EE9B
:10293000400A84ED070AC0EE080A20EEA80A84EDDA
:10294000030A287F01280AD122480021803000F0A4
:10295000E8FA00EE100AB8EE400A84ED080A287F73
:10296000022810D11B480421803000F0DAFA00EE72
:10297000100AB8EE400A84ED090AC0EE080A20EEFB
:10298000A80A84ED040A287F01280AD111480021F1
:10299000403000F0C6FA00EE100AB8EE400A84EDAE
:1029A0000A0A287F022810D10A480421403000F08A
:1029B000B8FA00EE100AB8EE400A84ED0B0AC0EE39
:1029C000080A20EEA80A84ED050ABDEC028B70BD52
:1029D00000000020100200200024F44A00D0044728
:1029E0002DE9F041044690F83C000D4601283DD009
:1029F000012684F83C60022084F83D00AAB3042A32
:102A000046D02068082A55D0D5E90027E968036A2E
:102A100023F480530362D0F81CC0036A2CF4407C7A
:102A20004CEA07274FF6FF7C27F470470CEA013188
:102A300039434FF4204723F4204307EA02321A4374
:102A4000C16102622068C16921F44061C1612068EE
:102A5000C169AA6841EA0221C0F81C1084F83D60EF
:102A6000002084F83C00BDE8F08101E00220FAE794
:102A7000D5E90012EB68206801F088FA20688169C6
:102A800021F00C01816120688169AA6811430FE07F
:102A9000D5E90012EB68206801F0C6FA2068816968
:102AA00021F44061816120688169AA6841EA0221BC
:102AB0008161D3E7D5E9002C2F7B016A21F4807175
:102AC0000162C169036A21F0030141EA0C0121F0AE
:102AD000F00C39074FF420674CEA116123F42063AE
:102AE00007EA02221A43C16102622068C16921F02B
:102AF0000C01C1612068C169AA681143ACE710B537
:102B0000040003D094F83D0010B107E0012010BD8F
:102B1000002084F83C00204600F00CF8022084F8E5
:102B20003D00211D206800F0AFFF012084F83D002A
:102B3000002010BD704710B50268044631B1042969
:102B400008D0082915D00C2908D116E0D06840F02B
:102B5000020002E0D06840F00400D060012220684A
:102B600000F0F4FF2068016841F0010101600020DD
:102B700010BDD06840F00800EFE7D06840F01000CA
:102B8000EBE770B50446006801694FF00005C943E2
:102B9000890715D4C168C943890711D4E91E0161A9
:102BA00001202077206880698007204602D0FFF747
:102BB0009FFE04E000F0D2F8204600F080F925776F
:102BC00020680169C943490717D4C168C943490747
:102BD00013D46FF00401016102202077206880691E
:102BE00010F4407F204602D0FFF782FE04E000F0A0
:102BF000B5F8204600F063F9257720680169C943DC
:102C0000090716D4C168C943090712D46FF0080137
:102C10000161042020772068C0698007204602D027
:102C2000FFF766FE04E000F099F8204600F047F94F
:102C3000257720680169C943C90617D4C168C9430B
:102C4000C90613D46FF010010161082020772068B5
:102C5000C06910F4407F204602D0FFF749FE04E02F
:102C600000F07CF8204600F02AF9257720680169F9
:102C7000C943C90708D1C168C943C90704D1891E1E
:102C80000161204600F04CF920680169C94309063A
:102C900009D4C168C943090605D46FF080010161F8
:102CA0002046FFF75AFC20680169C943C90509D4C9
:102CB000C168C943090605D46FF4807101612046DB
:102CC000FFF74AFC20680169C943490609D4C16875
:102CD000C943490605D46FF040010161204600F068
:102CE00063F920680169C94389060BD4C168C943E7
:102CF000890607D46FF0200101612046BDE87040CD
:102D0000FFF72CBC70BD000010B586B0044614213E
:102D10006846FDF772FA0F492068884217D10E48BD
:102D2000416941F4003141614069694600F4003075
:102D300005904FF4807000900220019000200290D6
:102D40000390062004904FF09040FEF75BFD06B024
:102D500010BD0000002C014000100240704770B50B
:102D6000044690F83C000D4601280ED0012684F858
:102D70003C60022084F83D000C2A45D007DC5AB1A3
:102D8000042A1BD0082A78D12CE0022070BD102A1A
:102D90004ED0142A71D15DE0206800F0F5FE206865
:102DA000816941F0080181612068816921F0040195
:102DB0008161206881692A69114311E0206800F06F
:102DC00039FF2068816941F400618161206881696F
:102DD00021F480618161206881692A6941EA0221C8
:102DE00081614AE0206800F075FF2068C16941F008
:102DF0000801C1612068C16921F00401C161206836
:102E0000C1692A69114311E0206800F0B3FF20680E
:102E1000C16941F40061C1612068C16921F4806128
:102E2000C1612068C1692A6941EA0221C16124E0C7
:102E3000206800F0DFFF2068416D41F00801416526
:102E40002068416D21F0040141652068416D2A69C7
:102E5000114311E0206801F009F82068416D41F448
:102E6000006141652068416D21F480614165206801
:102E7000416D2A6941EA0221416584F83D600020E4
:102E800084F83C0070BD10B5040003D094F83D00F8
:102E900010B107E0012010BD002084F83C0020465E
:102EA00000F00CF8022084F83D00211D206800F09D
:102EB000EBFD012084F83D00002010BD70477047F5
:102EC00010B504460068012200F040FE0E4821685B
:102ED00081420ED00D4881420BD00D48814208D06E
:102EE0000C48814205D00C48814202D00B488142F7
:102EF00003D1486C40F4004048642068016841F008
:102F000001010160002010BD002C0140003401408F
:102F10000040014000440140004801400050014091
:102F2000704790F83C300022012B0AD0012380F832
:102F30003C3041B1042909D008290AD00C290DD10F
:102F40000AE00220704701684A6B07E001688A6B5B
:102F500004E00168CA6B01E001680A6C002180F896
:102F60003C101046704770B5044690F83C000128AC
:102F700018D0012584F83C50022084F83D002046FA
:102F800000F0B2FF2068C16821F04001C1602068F4
:102F9000C16821F48041C16084F83D50002084F86C
:102FA0003C0070BD022070BD704770477047000044
:102FB00070B503680446D869196810F00F0508D188
:102FC000820606D58A0604D52046BDE8704001F089
:102FD0000AB99A68002D66D002F0010501F49076D6
:102FE0002E4360D0C60707D0CE0505D501261E6248
:102FF000E36E43F00103E366830708D5D30706D0E9
:10300000266802233362E36E43F00403E36643075A
:1030100008D5D20706D0236804221A62E26E42F075
:103020000202E26602070AD501F020022A4306D016
:10303000236808221A62E26E42F00802E266E26E3B
:10304000002A29D0800604D5880602D5204601F042
:10305000CAF8E06E000703D42068806840061CD5DB
:10306000204601F0A5F820688168490611D58168DD
:1030700021F040018160606E58B11C494163606E6F
:10308000FEF788FB002807D0606E416BBDE87040FA
:1030900008472046FFF78AFF70BD2046FFF786FFEE
:1030A0000020E06670BDC5020ED552020CD54FF46B
:1030B00080101862202084F8690084F86A00204695
:1030C000BDE87040FFF771BF020606D50A0604D5B9
:1030D0002046BDE8704001F0ADB94006E2D5480693
:1030E000E0D52046BDE8704001F070B89D41000871
:1030F00010B5040003D094F8690010B107E0012076
:1031000010BD002084F86800204600F027F8242035
:1031100084F869002068016821F0010101602046FF
:1031200001F09CF80128EBD0606A10B1204600F055
:10313000A3FF2068416821F49041416020688168C4
:1031400021F02A0181602068016841F001010160DD
:103150002046BDE8104000F0F3BF0000F0B587B096
:10316000044614216846FDF748F83D4B22680025C7
:103170003C490224032605273B489A421CD1CA69D0
:1031800042F40022CA61CA6902F4002205924A6927
:1031900042F400224A61496901F400210591B1021B
:1031A0008DE8F2006946FEF72DFB0022114634201F
:1031B000FEF778FC34202DE02C4B9A422ED1CA69C0
:1031C00042F48012CA61CA6902F4801205924A6907
:1031D00042F400224A614A6902F4002205924A69D7
:1031E00042F480124A61496901F4801105919914F1
:1031F0008DE8F2006946FEF705FB04208DE8F1003A
:1032000069461B48FEF7FEFA002211463520FEF7FC
:1032100049FC3520FEF73AFC07B0F0BD154B9A4249
:10322000FAD18A6942F480428A618A6902F4804252
:1032300005924A6942F400224A61496901F4002179
:10324000059130218DE87200072104916946FEF74F
:10325000D9FA002211462520FEF724FC2520D9E7C3
:10326000004C0040001002400008004800500040A0
:10327000000C00480038014090F86A30202B3FD104
:10328000B9B1B2B190F86830012B39D0012380F880
:1032900068304165A0F85820A0F85A208168FF22C4
:1032A000B1F5805F07D07F2351B1B1F1805F0CD0C1
:1032B00010E001207047016921B940F2FF1107E0D9
:1032C0000169D1B9A0F85C2004E00169A9B13F21EE
:1032D000A0F85C100021C166222280F86A2080F8E4
:1032E000681001688A6842F001028A60006801681B
:1032F00041F49071016000207047A0F85C30E9E76C
:1033000002207047704790F86930202B18D1A9B17E
:10331000A2B190F86830012B12D040F84C1F828087
:10332000C2800021016221224277017750F84C0CC3
:10333000016841F080010160002070470120704762
:10334000022070477047FEE707490968C9070AD09D
:10335000054980390968C90705D04FF060410A68FE
:10336000002AFCD008707047800E00E030B589B0AC
:10337000002406940794182168460894FCF73DFF42
:1033800014484FF0A0410125C0E900140461C46154
:10339000082144628160C9010163C46005624FF481
:1033A000E0714463C1620421C0E905148463FDF740
:1033B000C1FE06A907480694FDF72AFA0095039472
:1033C000CDE901540494694602480594FDF7AAFA30
:1033D00009B030BD8000002030B587B018216846A4
:1033E000FCF70BFF134812490024C0E900140461E4
:1033F000C461082144628160C90101630125C46080
:1034000005624FF4E0714463C1620421C0E9051410
:103410008463FDF78FFE00950394CDE90154049475
:10342000694604480594FDF77DFA07B030BD0000F9
:1034300000010050D400002030B589B0002406946B
:103440000794182168460894FCF7D7FE15481449DC
:103450000125C0E900140461C4610821446281604F
:10346000C9010163C46005624FF4E0714463C16245
:103470000421C0E905148463FDF75CFE06A9094830
:103480000694FDF7C5F900950394CDE90154049421
:10349000694604480594FDF745FA09B030BD0000BF
:1034A000000400502801002070B586B0182168463D
:1034B000FCF7A3FE134812490024C0E9001404617C
:1034C000C461082144628160C90101630125C460AF
:1034D00005624FF4E07144630426C162C0E90564EB
:1034E0008463FDF727FE00960394CDE9015404940C
:1034F000694604480594FDF715FA06B070BD000052
:10350000000500507C0100202DE9F04186B0142117
:103510006846FCF772FE3248416941F4002141617E
:10352000416901F400210591416941F48001416143
:10353000416901F480010591416941F40031416123
:10354000416901F400310591416941F480214161F3
:10355000416901F480210591416941F48011416183
:1035600040694FF0904700F4801005900022202120
:103570003846FEF72DFADFF86C804FF484560022AF
:1035800031464046FEF724FA4FF4005000901648AA
:103590000024CDE9010469461448FEF733F90C20F4
:1035A00000900220CDE901040720CDE903406946DF
:1035B0003846FEF727F9202000900125CDE9015477
:1035C000694638460394FEF71DF90096CDE901548B
:1035D000694640460394FEF715F906B0BDE8F08150
:1035E00000100240000400480000211000080048BC
:1035F00010B59AB000241794189415941694129448
:1036000013941C210BA81494FCF7F7FD2C21684699
:10361000FCF7F3FD2248214901600F21C0E90114A4
:103620004CF24F31C0E9031444618461FFF716F88E
:103630004FF48050159015A91948FFF7DBF818488A
:10364000FFF721FC1294139412A915481494FEF765
:10365000D5FF6020CDE90B040D940E940F941094C7
:1036600000220BA90E481194FFF779FB00944FF448
:103670000050CDE9044001940294039400030694A1
:10368000CDE907400994694605480A94FEF768FFAA
:103690000348FFF739FB1AB010BD0000002C0140B1
:1036A000D001002030B591B0002409940A940B9405
:1036B000142104A80C94FCF7A0FD20480D940F944D
:1036C0000E940094019402944FF0804101250394DC
:1036D000C0E900154FF6E851C0E902410461846178
:1036E000FEF7BCFF2803099009A91448FFF782F8E8
:1036F0001248FFF704FA042004905020CDE9050495
:1037000004A90E480894FFF72EFC0D940DA90B4850
:103710000F94FEF773FFCDE900450294002269463D
:1037200006480394FFF75CF90220009004226946E2
:103730000248FFF755F911B030BD0000100200201B
:1037400030B591B0002409940A940B94142104A874
:103750000C94FCF752FD20480D940F940E940094A5
:10376000019402941B4901250394C0E900154FF60A
:10377000E851C0E9024104618461FEF76FFF28034C
:10378000099009A91448FFF735F81348FFF7B7F96E
:10379000042004905020CDE9050404A90E480894A3
:1037A000FFF7E1FB0D940DA90B480F94FEF726FFE0
:1037B000CDE9004502940022694607480394FFF7CB
:1037C0000FF902200090042269460348FFF708F928
:1037D00011B030BD000400405002002030B591B05F
:1037E000002409940A940B94142104A80C94FCF767
:1037F00004FD20480D940F940E94009401940294BB
:103800001B4901250394C0E900154FF6E851C0E9B2
:10381000024104618461FEF721FF2803099009A990
:103820001448FEF7E7FF1348FFF769F904200490F6
:103830005020CDE9050404A90E480894FFF793FB36
:103840000D940DA90B480F94FEF7D8FECDE9004565
:1038500002940022694607480394FFF7C1F802204A
:103860000090042269460348FFF7BAF811B030BD52
:10387000000800409002002010B588B000241348D2
:103880000594069403940494009401940E490294C0
:1038900001604F21C0E90114C0E90314446184614F
:1038A000FEF7DCFE4FF48050039003A90748FEF7B3
:1038B000A1FF2020CDE90004694604480294FEF7E8
:1038C0009DFE08B010BD000000340140D002002071
:1038D0000948084901604FF4165141600021816098
:1038E0000C22C160C0E904128161C16101624162C0
:1038F000FFF7FEBB004C00401003002009480849B8
:1039000001604FF416514160002181600C22C160BA
:10391000C0E904128161C16101624162FFF7E8BB45
:1039200000500040800300200948084901604FF41E
:1039300016514160002181600C22C160C0E904126F
:103940008161C16101624162FFF7D2BB0038014071
:10395000F0030020FEE770470907090E002806DA89
:1039600000F00F0000F1E02080F8141D704700F116
:10397000E02080F80014704770477047FEF734B8B5
:1039800030B5A5B0282116A8FCF737FC142120A8D3
:10399000FCF733FC58216846FCF72FFC012528046E
:1039A000CDE916500221CDE91C1019954FF4E01015
:1039B0000024CDE91E0416A8FEF7EEFA0F20CDE98B
:1039C0002005A802CDE92240002120A82494FEF77A
:1039D000E5F909480594009028020A9006944001F0
:1039E00010940B9002940D940E940F946846FEF779
:1039F0008BF825B030BD00009931300014480168C3
:103A000041F4700101601348016841F00101016057
:103A10004168114A114041600168104A114001603B
:103A2000016821F480210160416821F4FE014160B8
:103A3000C16A21F00F01C162016B094A11400163A3
:103A4000002181600249C00380390860704700008E
:103A500088ED00E0001002400CC07FF8FFFFF6FE8A
:103A6000CCFC00FF0148FFF78CB8000010020020DA
:103A70000148FFF786B80000500200200148FFF718
:103A800080B80000900200202DE9F0470268274B23
:103A9000274E284F284C294D4FF0804A984209D094
:103AA000504507D0B04205D0B84203D0A04201D063
:103AB000A84204D122F0700C4A6842EA0C02DFF8F6
:103AC00080C0DFF88080DFF8809098420FD05045AA
:103AD0000DD0B0420BD0B84209D0A04207D060450B
:103AE00005D0404503D0484501D0A84203D122F477
:103AF0004076CA6832434E6922F080023243026047
:103B00008A68C2620A688262984209D0A04207D0DD
:103B1000604505D0404503D0484501D0A84201D1B9
:103B20000969016301214161BDE8F087002C014072
:103B300000040040000800400034014000500140F3
:103B400000400140004401400048014010B50123FD
:103B5000046A8B409C430462036A8A4013430362F5
:103B600010BD10B5846842EA032224F47F440A435E
:103B70002243826010BD826822F070020A4342F044
:103B800007018160704700002DE9F047026A22F0CA
:103B900001020262056A436882691F4C25F0020532
:103BA00022400C6822F0030214438A681C4E2A4308
:103BB0001A4D1C4FDFF870C0DFF87090DFF870A06E
:103BC000A84209D0B04207D0B84205D0604503D022
:103BD000484501D0504506D122F00808CA6842EA9B
:103BE000080222F00402A84209D0B04207D0B8422D
:103BF00005D0604503D0484501D0504505D14D69F9
:103C000023F440731D438B692B43436084614968EF
:103C100041630262BDE8F0878FFFFEFF002C014088
:103C20000034014000400140004401400048014090
:103C300000500140F0B5026A22F010020262056AEB
:103C4000426883691C4C1E4E23400C6823F4407369
:103C500043EA042425F020038D681A4F43EA051334
:103C6000164DA84203D0B04201D0B84207D1D1F8D6
:103C70000CC023F0800343EA0C1323F04003A84256
:103C80000CD0B0420AD0104DA84207D00F4DA84228
:103C900004D00F4DA84201D0B84207D14D6922F49B
:103CA000406242EA85028D6942EA8502426084618F
:103CB000496881630362F0BDFF8FFFFE002C014065
:103CC00000340140005001400040014000440140E8
:103CD00000480140F0B5026A22F480720262056A6F
:103CE0004268C3691C4C1E4E23400C6823F003033A
:103CF0001C4325F400738D681A4F43EA0523174DC2
:103D0000A84203D0B04201D0B84207D1D1F80CC0CC
:103D100023F4006343EA0C2323F48063A8420CD00D
:103D2000B0420AD0104DA84207D0104DA84204D08E
:103D30000F4DA84201D0B84207D14D6922F440523C
:103D400042EA05128D6942EA05124260C46149687F
:103D5000C1630362F0BD00008FFFFEFF002C014035
:103D60000034014000500140004001400044014047
:103D70000048014030B5026A22F480520262046AAF
:103D80004268C369144D24F400542B400D6823F499
:103D9000407343EA05238D6844EA05340F4DA84279
:103DA0000ED00F4DA8420BD00E4DA84208D00E4D9C
:103DB000A84205D00D4DA84202D00D4DA84204D115
:103DC0004D6922F4804242EA85124260C36149682B
:103DD0000164046230BD0000FF8FFFFE002C014033
:103DE00000340140004001400044014000480140CF
:103DF0000050014030B5026A22F480320262046A47
:103E00004268436D124D2B400D681D4324F400336E
:103E10000C8943EA04430F4CA0420ED00E4CA04242
:103E20000BD00E4CA04208D00D4CA04205D00D4C3A
:103E3000A04202D00C4CA04204D14C6922F4803242
:103E400042EA04224260456549688165036230BDEB
:103E50008FFFFEFF002C0140003401400040014074
:103E600000440140004801400050014030B5026A62
:103E700022F480120262046A4268436D134D24F4F6
:103E800000142B400D6843EA05230D8944EA0554CC
:103E90000F4DA8420ED00F4DA8420BD00E4DA84298
:103EA00008D00E4DA84205D00D4DA84202D00D4DB0
:103EB000A84204D14D6922F4802242EA8522426060
:103EC00043654968C165046230BD0000FF8FFFFE95
:103ED000002C0140003401400040014000440140FA
:103EE000004801400050014030B40468A26822F04C
:103EF00070034A681A431B4B1A400B681343A360B4
:103F00004A6812F00F0F1FD11211082A1CD2DFE8E5
:103F100002F01B1B1B1B0B1D23040B69D1E90221A3
:103F2000006830BCFFF71DBE0268136A146A24F0F3
:103F30000104146202689469096924F0F00444EAF7
:103F4000011191610068036230BC70470A69896899
:103F5000006830BC00F008B80A698968006830BCA5
:103F600000F050B8F8FFFEFF10B5036A046A24F0B1
:103F700001040462846924F0F00444EA021423F08A
:103F80000A020A438461026210BD000070B5046A2F
:103F900024F0010404628469056A144EB04211D011
:103FA000B0F1804F0ED0124EB0420BD0114EB04245
:103FB00008D0114EB04205D0104EB04202D0104E83
:103FC000B04203D124F00304144301E044F001049F
:103FD0001A0724F0F00444EA126225F00A0301F003
:103FE0000A0119438261016270BD0000002C01408A
:103FF000000400400008004000340140004001403F
:104000000050014010B5036A23F010030362836976
:10401000046A23F4704343EA023224F0A00343EA23
:1040200001118261016210BD30B5046A24F01004F0
:1040300004628469056A24F4407444EA022222F48A
:1040400070444FF6FF7202EA03322243A02425F0A7
:10405000A00304EA011119438261016230BD00002E
:104060000148FEF7A5BF0000100300200148FEF73D
:104070009FBF00008003002090F82410C90706D0DD
:1040800001684A68836A22F400321A434A6090F851
:104090002410890706D501684A68C36A22F4803271
:1040A0001A434A6090F82410490706D501684A6807
:1040B000036B22F480221A434A6090F82410090707
:1040C00006D501684A68436B22F400421A434A60ED
:1040D00090F82410C90606D501688A68836B22F41B
:1040E00080521A438A6090F82410890606D5016828
:1040F0008A68C36B22F400521A438A6090F8241035
:10410000490611D501684A68036C22F480121A43EB
:104110004A60016CB1F5801F06D101684A68436CA2
:1041200022F4C0021A434A6090F82410090606D50A
:1041300001684A68806C22F4002202434A6070479A
:10414000F8B500260446C666FDF748FC054620681B
:1041500000686FF07E47000708D52B4600224FF419
:1041600000112046009700F097F960B920680068B8
:1041700040070AD52B4600224FF4800120460097C5
:1041800000F08AF908B10320F8BD202084F8690006
:1041900084F86A0084F868600020F8BD10B5406AB1
:1041A0000021A0F85A10A0F85210FEF7FFFE10BD33
:1041B00001680A6822F490720A6001688A6822F035
:1041C00001028A60202180F86A10704710B50168EA
:1041D0000A6822F040020A60202180F86910FFF787
:1041E000B1F8002010BD10B5B0F85C2090F86A302E
:1041F0000168222B05D0886940F008008861022000
:1042000010BD898C8368B3F5805F01D103696BB100
:104210001140426D531C43651170B0F85A10491E8D
:104220000904090CA0F85A1007D015E0436D11409D
:104230001980416D891C4165EFE701680A6822F425
:1042400090720A6001688A6822F001028A60202167
:1042500080F86A10FFF756F8002010BD2DE9F041F4
:10426000044610202369A268E6691A4363690021A5
:1042700033431A4323680D461E68654F3E4016437C
:104280001E6022685368E66823F44053334353604A
:10429000236AA2691A4323689E6826F4306616438F
:1042A0009E605C4F22685C4B0603BA420CD11B6BCC
:1042B00013F0030306D0012B4DD0022B4DD0032B5E
:1042C0004CD146E0012049E0544FBA420CD11B6B5F
:1042D00013F440333BD0B3423DD0B3F5003F3CD064
:1042E000B3F5403F3AD134E04D4FBA420DD11B6B8C
:1042F00013F440232BD0B3F5802F2CD0B3F5002F2F
:104300002BD0B3F5402F29D123E0464FBA420DD12F
:104310001B6B13F440131AD0B3F5801F1BD0B3F5F9
:10432000001F1AD0B3F5401F18D112E03E4FBA4219
:1043300014D11B6B13F4400309D0B3F5800F0AD0DE
:10434000B3F5000F09D0B3F5400F07D101E000200D
:1043500004E0022002E0042000E00820E7694FF4B6
:1043600000439F4227D109281ED2DFE800F005084C
:10437000131D161D1D1D1900FDF7B2FD01E0FDF70F
:10438000C7FD4100D4F8040001EB5001B1FBF0F08F
:1043900081B20AE025496068F6E7FDF7D1FDF0E754
:1043A000606806EB5001F1E7012521F00F00C1F331
:1043B000420108431CE0092825D2DFE800F0050887
:1043C0000B24102424241C00FDF78AFD09E0FDF7CE
:1043D0009FFD06E01649606801EB50010EE0FDF715
:1043E000AFFD0146606801EB5001B1FBF0F080B217
:1043F0002168C86008E0606803EB5001B1FBF0F091
:1044000080B2D06000E001252846BDE8F0810000C0
:10441000F369FFEF00380140001002400044004003
:1044200000480040004C0040005000400024F400D0
:1044300000127A0090F86910212901D002207047FB
:10444000B0F8521021B18168B1F5805F0BD00CE05B
:1044500001680A6822F080020A600068016841F081
:10446000400101600CE0016961B1C16C4A1CC26489
:1044700002680978A2F8281030F8521F491E0180FE
:1044800000207047C16C02680988C1F308011185DA
:10449000C16C891CC164EFE72DE9F04198461746CD
:1044A0000E460446069D1DE0681C1BD02DB1FDF78D
:1044B00095FAA0EB0800A84214D92068016821F4FD
:1044C000D07101602068816821F0010181602020A5
:1044D00084F8690084F86A00002084F868000320EA
:1044E000BDE8F0812068C06936EA000004D00020F1
:1044F000B842D9D00020F3E70120F9E70148FEF7E0
:1045000057BD0000F0030020FEE700000FB4054B8C
:1045100010B503A9044A029800F017F810BC5DF822
:1045200014FB0000214600087C00002002E008C8BF
:10453000121F08C1002AFAD170477047002001E01D
:1045400001C1121F002AFBD170472DE9F84F99468F
:10455000924688460546002706E025280AD051469F
:104560004A4690476D1C7F1C28780028F5D13846B4
:10457000BDE8F88F002315F8011F18462E2915D124
:1045800015F8011F04232A290DD06FF02F02297876
:10459000A1F13004092C09D800EB800002EB4000A7
:1045A00008446D1CF3E758F8040B6D1C2A78002AA8
:1045B000DDD0632A07D0732A0FD0104651464A46F1
:1045C00090477F1C2AE018F8042B8DF8002000216A
:1045D0008DF801106E46012103E058F8046B4FF08E
:1045E000FF315A074FF0000401D409E0641C8442F3
:1045F0000BDA8C42FADB325D002AF7D105E0641C4D
:104600008C42FCDB305D0028F9D1274404E016F829
:10461000010B51464A469047641EF8D26D1CA3E731
:10462000034A914201D1FEF78FBE4FF0FF30704731
:104630007C00002070B50122084D14032146284655
:10464000FDF7C6F940F6B830FDF7CAF8214628460E
:10465000BDE870400022FDF7BBB90000000400482F
:1046600070B50122114D140321462846FDF7B0F91B
:104670004FF4FA763046FDF7B3F80022214628467B
:10468000FDF7A6F93046FDF7ABF801222146284692
:10469000FDF79EF940F2DC50FDF7A2F821462846CE
:1046A000BDE870400022FDF793B900000004004807
:1046B000FDF7A2F9FFF764F9FEF726FFFEF798FF72
:1046C000FEF7F0FFFFF73CF8FFF788F8FEF74EFE25
:1046D000FFF7D2F8FEF780FEFEF7AEFEFFF7F8F820
:1046E000FEF7E2FEFFF720F9FFF708F90021724814
:1046F000FEF7E6FB7048714CC068401C00EE100AE3
:10470000A060D4ED010AB8EEC00A20EE800ADFED09
:104710006C0A6C4980EE201ABCEEC10A10EE100A39
:104720000860654800214030FEF705FA6248042120
:104730004030FEF700FA60480021C030FEF7FBF978
:104740005D480421C030FEF7F6F95B480021803057
:10475000FEF7F1F9584804218030FEF7ECF95A4889
:10476000FEF73AF85948FCF755FF58485430FCF723
:1047700051FF5148A838FCF74DFF4F485438FCF71B
:1047800049FFDFF84CA1DFF84C91DFF84CB1DFF8BE
:104790004C81534D4FF07F5752496422A1F5A870C8
:1047A000FEF76AFDE0685646B04201DAFFF758FFAF
:1047B0002069B04201DAFFF73DFF6069B04201DADB
:1047C00000F094F8606CB8421ADD41F28830FDF7D1
:1047D00007F8606C484513DB012280212846FDF76D
:1047E000F7F84FF47A70FCF7FBFF0022802128468F
:1047F000FDF7EEF83B493CA0FFF788FE00F09CF87F
:10480000606C5E46B0421AD941F28830FCF7E8FF8E
:10481000606C404513D9012280212846FDF7D8F865
:104820004FF47A70FCF7DCFF002280212846FDF768
:10483000CFF82C492CA0FFF769FE00F07DF8206C22
:10484000B8421ADD41F28830FCF7CAFF206C4845B7
:1048500013DB012280212846FDF7BAF84FF47A7065
:10486000FCF7BEFF002280212846FDF7B1F81D4964
:104870001DA0FFF74BFE00F05FF8206CB0428BD913
:1048800041F28830FCF7ACFF206C404584D901220E
:1048900080212846FDF79CF84FF47A70FCF7A0FFC2
:1048A000002280212846FDF793F80E490EA0FFF75D
:1048B0002DFE00F041F86FE7D0010020000000203D
:1048C0000000C842342C0140D002002080000020AB
:1048D0000000F041CDCC4C3F0000C0BFCDCC4CBF60
:1048E000000400486004002025730A0070B501220E
:1048F000104D140321462846FDF76AF84FF4FA7666
:104900003046FCF76DFF002221462846FDF760F88F
:104910003046FCF765FF012221462846FDF758F88E
:104920003046FCF75DFF21462846BDE87040002276
:10493000FDF74EB80004004810B51A22114912487C
:10494000FEF7E1FC6420FCF74BFF4FF448720F497F
:104950000D48FEF791FC6420FCF742FF0B49122240
:1049600064390948FEF7CFFC6420FCF739FF05499C
:10497000012248390448FEF7C6FCBDE81040642017
:10498000FCF72EBF4800002080030020C404002054
:1049900002030405060708090A0B0C0D0E0F101080
:1049A0000102030405060708090A0B0C0D0E0F107F
:1049B00000000000000000000102030406070809CF
:1049C0000000000001020304E84900080000002084
:1049D000800000002C450008684A00088000002084
:1049E000680B00003C4500081A0000000AD7233C71
:1049F00000000000000000000000000000000000B7
:104A000000000000000000000000000000000000A6
:104A10000000000000000000000000000000000096
:104A20000000000000000000000000000000000086
:104A300041542B434D47533D222B393139353530C5
:104A4000363730393930220D0A00000000000000EE
:104A50000000000001000000100000000000000045
:084A600000127A0000000000C2
:040000050800019559
:00000001FF
